:020000040800F2
:10000000880A00205D0200086502000867020008F7
:10001000690200086B0200086D0200080000000081
:100020000000000000000000000000006F02000857
:100030007102000800000000730200087502000849
:1000400077020008770200087702000877020008AC
:10005000770200087702000877020008770200089C
:10006000770200087702000877020008770200088C
:10007000770200087702000877020008770200087C
:10008000770200087702000877020008770200086C
:10009000770200087702000877020008770200085C
:1000A000770200087702000877020008770200084C
:1000B000770200087702000877020008770200083C
:1000C000770200087702000877020008770200082C
:1000D000770200087702000877020008414700080D
:1000E000770200087702000877020008770200080C
:1000F00077020008770200087702000877020008FC
:1001000077020008770200087702000877020008EB
:1001100077020008770200087702000877020008DB
:1001200077020008770200087702000877020008CB
:1001300077020008770200087702000877020008BB
:1001400077020008770200087702000877020008AB
:10015000770200087702000877020008770200089B
:10016000770200087702000877020008770200088B
:10017000770200087702000877020008770200087B
:10018000770200087702000800F002F800F056F845
:100190000AA090E8000C82448344AAF10107DA45E2
:1001A00001D100F04BF8AFF2090EBAE80F0013F0DE
:1001B000010F18BFFB1A43F001031847007100003C
:1001C00020710000103A24BF78C878C1FAD85207CD
:1001D00024BF30C830C144BF04680C6070470000C1
:1001E0000023002400250026103A28BF78C1FBD840
:1001F000520728BF30C148BF0B607047782900F014
:100200007381732900F05784002070471FB506F0F2
:1002100063FF9DE8030000F08FFB00F043FF040044
:100220000020002106F0C8F9401C60600020002179
:1002300006F0D8F9E0601FBD10B510BD00F0D8FF82
:100240001146FFF7E3FF05F0B9F801F02BFA03B40C
:10025000FFF7F2FF03BC01F05BFA0000094880479A
:1002600009480047FEE7FEE7FEE7FEE7FEE7FEE798
:10027000FEE7FEE7FEE7FEE704480549054A064BB0
:1002800070470000792D00088901000888040020CB
:10029000880A0020880600208806002070B50646DF
:1002A00000F02EFB056806F10B0020F00704B442B5
:1002B0009CBF002070BD2B466A68BAB11068A0428E
:1002C00010D304F1080188423CBF5068586007D33E
:1002D0005168101941601168091B01605860146071
:1002E000101D70BD13465268002AE7D121462846EA
:1002F00000F00EFB0028DED170BD70B50446051F6E
:1003000000F0FEFA0068002C14BF446870BD002C99
:1003100018BFAC423CBF20466468F8D301680A1895
:10032000AA4218BF456003D12A68054611440160FE
:1003300028684119A1421CBF6C6070BD616869608A
:1003400021680844286070BD70B50D460646041F3C
:1003500000F0D6FAD0F800C0C5B1E6B105F10B0047
:1003600020F00703AB423CBF002070BD20689842DC
:1003700038BFDCF8042013D3C11A08292FD3E018A2
:1003800040F8041B2360FFF7B8FF28E03046FFF772
:10039000B4FF002070BD2846BDE87040FFF77EBF67
:1003A000002A18BFA2423CBF94465268F8D30119F4
:1003B000914216D111680844984212D3C11A0829F3
:1003C0003CBF2060506808D35168E0184160216844
:1003D00012681144C91A01602360CCF80400201D82
:1003E00070BD181FFFF75AFF050007D021680A1FCC
:1003F000211D00F0DFF9201DFFF77FFF284670BDAB
:1004000010B5044600F074FA0068005DC00602D51D
:1004100004F1200010BD204610BD00000FB41CB533
:10042000084B06AA7B4469460090059800F019FB2A
:1004300004460020694600F027FB20461CBC5DF8FE
:1004400014FB00006106000070B504468569006871
:10045000C10601D5302600E02026C00707D070BDB8
:10046000D4E9012130469047206A401C20626D1E6D
:10047000F6D570BD70B5044685690078C00707D110
:1004800070BDD4E9012120209047206A401C2062E1
:100490006D1EF6D570BD70B50C460546012A05D017
:1004A0002878800600D5EA69002302E0012305E0F0
:1004B0005B1C934202D2E05C0028F9D1A869E618DF
:1004C000C01AA861286A184428622846FFF7BCFFB2
:1004D00004E0D5E9012114F8010B9047B442F8D3A8
:1004E0002846FFF7C7FF70BD70B504460D4621468C
:1004F0001068AFF300802188090502D50F4A7A44BD
:1005000002E00E4A7A440E32002104F1240305E091
:1005100000F00F060009965D5E54491C0028F7D1D3
:1005200020780023000704D5702D02D009B10223E2
:1005300011322046BDE8704000F034BAEC6C000087
:100540002DE9F05F894604464FF0000ADFF874B1E8
:10055000FB44C0F820A02046E1688847002874D0FA
:10056000252806D0D4E901219047206A401C20624A
:10057000F1E700265F462046E168884720280546C7
:1005800007DB312D05D2781910F8200C08B106438D
:10059000F1E7B00701D526F00406C4F81CA0002737
:1005A000C4F818A02A2D09D0284604F048FD38B315
:1005B00004EB8708303DC8F8185019E059F8041BBF
:1005C000204604EB87029161E1688847012F0546C8
:1005D00018D1E069002820DA26F020061DE0D8F8BE
:1005E000180000EB800005EB40003038C8F8180018
:1005F0002046E1688847054604F021FD0028EED139
:10060000012F0AD02E2D08D12046E16888477F1C93
:100610000546022F46F02006C4DBA069002803DA55
:10062000404246F00106A061F00701D026F0100616
:100630006C2D0BD0682D09D04C2D39D06A2D35D0BA
:10064000742D35D07A2D33D016E038E0E1682F468E
:1006500020468847B842054609D16C2F26D04FF472
:100660008060E168064320468847054604E06C2F19
:100670001AD04FF4807006430DB3A5F1410019283C
:1006800002D8203546F400664A46294620462660B0
:100690004E46FFF7B3FD80B101280BD0F61D26F0C2
:1006A000070000F1080956E74020E4E78020D8E77A
:1006B0000020D6E706F104094DE7284652E7206AF4
:1006C000BDE8F09FC26C000010B5431C02E010F8BA
:1006D000011B71B18107FAD14FF0013202C88C1AA7
:1006E0008C4314EAC211F9D0C01A0A0603D0C01E06
:1006F00010BDC01A10BD0A0401D0801E10BD090231
:10070000FCD0401E10BD40EA010370B59B072ED1FE
:100710004FF00136042A2AD308C810C99D1B9D43F7
:10072000121F15EAC61517D0D8B2E1B2401A50EA26
:10073000056110D198B2A1B2401A50EA05410AD120
:1007400023F07F4024F07F41401A50EA052102D176
:10075000180EA0EB146070BDA342DBD018BA21BA0A
:10076000884201D9012070BD4FF0FF3070BD0AB939
:10077000002070BD10F8013B11F8014B63B1A3429A
:100780000AD1521E08D010F8013B11F8014B1BB1E1
:10079000A34201D1521EEDD1181B70BD421E12F8AA
:1007A000013F002BFBD111F8013B002B02F8013B6C
:1007B000F9D1704710B5203AC0F00B80B1E818505D
:1007C000203AA0E81850B1E81850A0E81850BFF43B
:1007D000F5AF5FEA027C24BFB1E81850A0E81850DA
:1007E00044BF18C918C0BDE810405FEA827C24BF2E
:1007F00051F8043B40F8043B08BF7047D20728BFBC
:1008000031F8023B48BF11F8012B28BF20F8023B0A
:1008100048BF00F8012B70474FF0000200B51346A7
:1008200094469646203922BFA0E80C50A0E80C5010
:10083000B1F12001BFF4F7AF090728BFA0E80C50C1
:1008400048BF0CC05DF804EB890028BF40F8042BBA
:1008500008BF704748BF20F8022B11F0804F18BF27
:1008600000F8012B704700004FF0013C50F8042BBA
:1008700051F8043B9A4221D1A2EB0C03934313EAB3
:10088000CC1317D150F8042B51F8043B9A4215D1E0
:10089000A2EB0C03934313EACC130BD150F8042BB7
:1008A00051F8043B9A4209D1A2EB0C03934313EA9B
:1008B000CC13DBD04FF00000704700BFD01A01BA54
:1008C000B1FA81F101F0180122FA01F0CB40C1F137
:1008D0002001DBB2C0B2C01A2CFA01F3D11A914345
:1008E00011EAC311E6D170477047704770470000A6
:1008F00010B500F0D7FB001D10BD00BFBD5C0000AF
:10090000004870472C0400207047704770477047BC
:1009100038B504460A4600206946AFF30080002837
:1009200008BF38BD02460099204600F0C3FB0120F5
:1009300038BD012000F054BCF8B5AFF30080054687
:1009400000200C46102000BF0646A819A0420DD971
:10095000324669460020AFF30080070008BF00F070
:100960003FFC0098A04218BF0546C419FFF7C8FF16
:1009700005600746F01D20F007004619284600F0E4
:100980000AF8B44208BFF8BDA21B31463868BDE87A
:10099000F84000F08FBB00210160C0E901107047F2
:1009A000102070472DE9F0470D46994692460446BF
:1009B00000F124080168880604D5E06921F01001DF
:1009C000216000E00120A84201DD471B00E0002774
:1009D000A1697A1902EB0900081AA0612078C00603
:1009E00002D42046FFF730FD002608E0D4E90121BB
:1009F0001AF806009047206A401C761C20624E457B
:100A0000F4DB2078C0060AD52046FFF71DFD06E07E
:100A1000D4E9012130209047206A401C2062381E12
:100A2000A7F10107F4DC07E0D4E9012118F805007B
:100A30009047206A401C2062281EA5F10105F3DCC6
:100A40002046FFF717FD2078000602D50220BDE8FA
:100A5000F0870120FBE7000001694A1C0261087869
:100A6000704700B58FB0CDE90131002105910549EE
:100A70007944CDE9031011466846FFF761FD0FB0D8
:100A800000BD0000E5FFFFFF0A6802F8010B0A60E5
:100A9000704710B5436913B1AFF3008001E0FFF771
:100AA000FAFC012010BD127800F124010A70002226
:100AB0004A700122EDE711684FF0FF32E9E70000CC
:100AC0002DE9FF4F06468BB00878FF2806D0491C59
:100AD0002D2805D000244FF0000908E000200CE08C
:100AE0000124F8E709EB8903491C00EB4309087866
:100AF000FF28F7D114B1C9F1000081461078002514
:100B00002C46AA4629462D2801D02B2804D1521C58
:100B10002D2813D0002082468B461078FF280FD056
:100B20004FF0000C0A21521CA5FB017804FB018147
:100B300005FB0C11C5194BEB0104EEE70120EAE7B8
:100B4000002108464FF00000BAF1000F02D000EB80
:100B500080004008C0F38157012F01DD4FF0FF37BF
:100B60000E9955EA040009EB01080BD04FF0020979
:100B700018F5FA7F16DA4FEACA70002F706008DDA8
:100B8000012007E04FEACA70C6E900B00FB0BDE827
:100B9000F08F0020306000F089FAC0F80090182132
:100BA000084616E0B8F5FA7F18DD002F02DAF7489C
:100BB000784401E0F6487844D0E90010C6E9001016
:100BC00040EACA70706000F071FAC0F80090142119
:100BD00008460FB0BDE8F04F06F088BA002108467D
:100BE0004FF00000B8F10001099002DAC7F10002ED
:100BF00000E03A4601DAC8F1000106A800F07EFAEA
:100C000006AB93E8070003AB83E8070044F23E001D
:100C10005BEA04010090584604D144F21E012C46C0
:100C20005D460091210C0904014306D1009924047A
:100C300044EA15442D041039009104F07F4101432A
:100C400006D10099240244EA15642D020839009166
:100C500004F07041014306D10099240144EA15745F
:100C60002D01091F009104F04041014306D1009974
:100C7000A40044EA9574AD00891E009104F000417F
:100C8000084304D100986D196441401E00904FF054
:100C900001033A466846B8F1000FCDE9014503A9C2
:100CA00002DD01F008F801E000F0DBFFBAF1000F0F
:100CB00004460D4601D084F00044002108464FF060
:100CC0000000099940F2FF77484010F00C0F07D15F
:100CD00024F00040284303D0C4F30A50B84212D194
:100CE00000F0E4F9C0F80090C4F30A50B8420AD109
:100CF000A8487844D0E90010C6E9001004F000418B
:100D00000843706042E7C6E900543FE72DE9FF4F12
:100D10001F464FF0000A4FF0FF38454691B0D7E923
:100D20000146CDF83CA000F0BDF9C0680168405C08
:100D30001090B96912986D1C8847396A81468847B6
:100D40000028F6D1B9F1FF3F0AD0002E24F4D06478
:100D500011DDB9F12B0F08D0B9F12D0F0BD102E045
:100D6000404615B013E744F48064B96912986D1CCD
:100D70008847761E8146600504A901D52D2000E034
:100D80002B20002E01F1010B0DF130088DF8100021
:100D90003FDDB9F1690F08D0B9F1490F05D0B9F1BC
:100DA0006E0F02D0B9F14E0F1CD13B4601A8009541
:100DB00080E85002DDE912126FF0020006F0FDF942
:100DC000C11CCED10EE0B96912986D1C88478146CE
:100DD0001398761E44F4007405600F98401C002E92
:100DE0000F9016DDB9F1300FEDD0B9F1780F02D0C8
:100DF000B9F1580F0DD10F9801280AD13B46CDE922
:100E00000054DDE91212001F029606F0D4F9C11C4D
:100E1000A7D1109989453ED144F0800406E013998A
:100E2000681CAAF1010A44F400740860B9696D1CD9
:100E30001298761E884730288146F0D02BE0109912
:100E4000894505D1200603D4761E44F0800418E0BD
:100E5000484604F0F4F808B3761E0DF123018B45E3
:100E600044F4007408D2A9F130000BF8010B2006FD
:100E700007D5AAF1010003E0200602D40AF101001F
:100E80008246A00502D51399681C0860B9691298BA
:100E90006D1C88478146002ED1DC53E0002E51DDC9
:100EA000B9F1650F02D0B9F1450F4BD1A00549D575
:100EB000B9696D1C1298761E24F440748847002E80
:100EC00081460CDD2B2804D0B9F12D0F07D144F455
:100ED0008074B96912986D1C8847761E8146E005BA
:100EE00001D52D2100E02B2108F8011BCDF8008051
:100EF00021E0761E0DF13901884544F400740CD2CE
:100F0000A9F1300010F0FF0088F8000002D100992C
:100F1000884509D908F1010806E0E00501D51E4819
:100F200001E042F20F708246B96912986D1C884741
:100F3000814613980560002E04DD484604F07FF8D2
:100F40000028D6D1F96912988847FF2053468BF8BC
:100F5000000088F8000000200A900B9004AA0CA959
:100F60000AA8FFF7ADFDA00502D46FF00100F8E676
:100F700014F0240F12D0E0071CD13868DDE90A1202
:100F8000031D3B600068C0E9001213E030670000F9
:100F900022670000E6650000F1D8FFFF0AA9684655
:100FA00004F03AF8E00705D13868009A011D39606D
:100FB000006802602846D4E6426842B1016811F830
:100FC000013B23B1521EC0E90012184670470121AF
:100FD000C160881E704742685AB1C368016843B94E
:100FE00083688B4205D0491E521CC0E900120020C4
:100FF00070474FF0FF3070470FB4002300B589B041
:101000000CA900910B99CB60214B7B440693214B9B
:101010007B44079304236FF00042CDE901321E4A5E
:101020007A446B4608920246002006F0C2F809B0E6
:101030005DF814FB70B506464FF0FF3015460C46C0
:10104000324686B00091CDE9010169460020049046
:1010500004A8FFF7D1FF02460498211825B108B172
:10106000084600E020462860049800280DD0002A99
:1010700002DD0098884208D03246081B6946009479
:10108000CDE9010404A8FFF7B7FF06B070BD00006A
:10109000ABFFFFFFC3FFFFFFC50000000048704724
:1010A0002404002000487047440400200048704792
:1010B00024040020034640688C46002818BF88425C
:1010C0003CBF03464068F8D318681844884207D0EC
:1010D0000CF1030020F00700001D411A521A0146CE
:1010E000081D0A60FFF709B910B50446FFF700FCB8
:1010F0000068005D00F0010010BD00002DE9F04720
:10110000814616468AB0354878440DC88DE80D00F2
:1011100032487844801C03AC0DC884E80D0041F6C9
:101120009B300844372190FBF1F290FBF1F5A5F1DB
:10113000800501FB12041B3C02D56442012000E043
:101140000020DFF898A080460027FA44AAF1BE0AE2
:101150000EE0E0070AD03246684607EB470101235C
:101160000AEB810100F092FD8DE8070064107F1CFE
:10117000002CEED1194F7F44AE3F19E0E80715D09F
:1011800007EB04100DF1180A90E80E008AE80E0033
:10119000C068F04201D1981908903246012306A98F
:1011A00003A800F073FD03AB83E807006D10641C17
:1011B000002DE3D14FF0010332466946B8F1000F2C
:1011C00003A802D000F038FD01E000F05FFDC9E99E
:1011D0000001C9F808200AB0BDE8F0879861000056
:1011E00010B500F06DFABDE8104000F064BA704729
:1011F0007546FFF753FFAE4605006946534620F09B
:101200000700854618B020B5FFF736F8BDE8204046
:101210004FF000064FF000074FF000084FF0000BB2
:1012200021F00701AC46ACE8C009ACE8C009ACE865
:10123000C009ACE8C0098D46704710B5FFF736FF0E
:10124000006810BD10B50446FFF730FF046010BD04
:101250002DE9FF4F1F464FF03C0987B04FF0004289
:10126000DDE9141001F10108DDF858A002EA405050
:101270000390002005908346054604460490B96912
:10128000461E08988847AAF1010A0290BAF1000F99
:101290003BDD02982E2815D0102100F052FA0028CC
:1012A0002EDB4FF0010B0599014317D0B9F1000F68
:1012B0000BDB4A46C11700F031FA05430C43A9F194
:1012C000040905E0012004900BE008B145F0010598
:1012D00001200590049820B9361D02E0049800B161
:1012E000361FB969089808F101088847BBF1000F5B
:1012F000AAF1010A0290C9D00999C1F80080C5E796
:101300000298702808D0502806D0F96908988847B4
:10131000BBF1000F14D04FE0002002900120BBF180
:10132000000F049009D0B969089808F101088847AE
:10133000AAF10109B9F1000F07DCF969089888479B
:101340006FF001000BB0BDE8F08F2B2804D02D28E2
:101350000CD14FF0FF300490B969089808F10108EA
:101360008847A9F10109B9F1000FE6DD411CE4D07D
:101370000A2100F0E6F90028DFDB029908F10108F4
:1013800001EB810100EB41000290B96908988847A0
:101390000A2100F0D6F9099AA9F10109B9F1000F63
:1013A000C2F8008001DD0028E7DAF969089888476B
:1013B0000499029800FB016655EA040004D004F089
:1013C0004041090002D006E0039898E0A40044EAF6
:1013D0009574AD00B61E04F00041080002D16D19ED
:1013E0006441761E159810F0240F03D04FF00B09BE
:1013F0005C4803E04FF028096FF07D0082465645B7
:1014000007DAAAEB06018944B9F1410F01DD4FF07B
:10141000410901200021A9F1010200F07FF90246F3
:1014200028400B462140084301D0012100E0002163
:10143000501E029143F1FF3128402140084301D062
:10144000012000E000200299834651EA0B014FD0B1
:10145000002108464FF00000039900F4400039B124
:1014600000EB80004FF4400100EBD07001EA600017
:101470008015012802DD4FF0FF3000E013D0401C42
:1014800036D0029860B3BBF1000F0CD14A46012060
:10149000002100F043F928402140084301D00120F9
:1014A00000E00020E0B101204A46002100F036F9BA
:1014B000034640190A4661412D1A8C4111D3B9F1F6
:1014C000400F09DD159810F0240F02D0AAF1340660
:1014D00003E0AAF1170600E0761C00254FF0004457
:1014E00006E05B1E42F1FF3220EA030521EA020416
:1014F000CAF10100B04206DA1B4903980843019083
:10150000002000900EE0039AC4F3D321E80A0A43B6
:10151000164940EA44500A433146CDE90002684684
:1015200003F083FD159810F0240F0BD01598C00719
:1015300015D13868DDE90012031D3B600068C0E981
:1015400000120CE002A8694603F066FD1598C0077A
:1015500005D13868029A011D396000680260404672
:10156000F0E6000002FCFFFF0000F07F0000F03F0B
:101570002DE9FF4F92461D4685B04FF00041DDE951
:10158000124BDDE914727F1E01EA4B50414940F0D5
:10159000FF4940EA0108002122F020004928049177
:1015A00002D04E2828D04CE03BA0012607C88DE889
:1015B0000700A9690698641C88477F1E014606D467
:1015C0001DF8060018B121F0200181420BD0E96915
:1015D00006988847032E34D0082E32D06FF00100D1
:1015E00009B0BDE8F08F761C032E01D0082EE0D1A3
:1015F000601CCAF80000DCE7A9690698641C8847EB
:101600007F1E2AD420F02000412826D1A9690698FF
:10161000641C88477F1E20D420F020004E281CD157
:10162000A9690698641C88477F1E48F4002849F47D
:101630008009CAF8004001D4282806D0E969069834
:1016400088475FEACB7012D022E0A9690698641C33
:1016500088477F1E01D4002803DAE9690698884785
:10166000BCE72928F1D1641CCAF80040E9E71BF067
:10167000240F07D028680499031D2B600068C0E977
:10168000001805E02868021D2A600068C0F8009074
:101690002046A5E70000F07F494E46494E4954597F
:1016A0000000000010B50446AFF300802046BDE8FE
:1016B0001040FEF7CCBD002801D000F029B87047DB
:1016C00010B5012805D0002103A000F048F8012042
:1016D00010BD09A1F8E7000053494752544D454D4C
:1016E0003A204F7574206F662068656170206D65C3
:1016F0006D6F7279000000003A2048656170206DBE
:10170000656D6F727920636F7272757074656400B5
:1017100001491820ABBEFEE726000200B2F120030B
:101720000AD5C2F1200301FA02F120FA03F300FA0C
:1017300002F041EA0301704700FA03F14FF00000A4
:1017400070473A2800D2303820F02002412A01D3D5
:10175000A2F13700884201D34FF0FF30704770B5D7
:1017600005460C460A2000E06D1C00F011F835B16A
:1017700028780028F8D102E0641C00F009F814B1C0
:1017800020780028F8D1BDE870400A20AFF300802F
:1017900008B569468DF800000320ABBE08BD20F0F7
:1017A0007F4C80EA030023F07F47ACEB070303F58F
:1017B0007C5300F0004003F1FF032DE980494FEA1C
:1017C000154B09B44FEA144325EA0B4E24EA0348AB
:1017D0000FF2042606EB132749083E785FEA32022F
:1017E00003FB0667C7F5000707FB06F64FEA543709
:1017F0004FEAD64606F1020607FB066CCCF1005C08
:101800004FEA1C472CEA074C07FB06F40CFB06F5D5
:1018100004EB15464FEA961634BF00204FF0004007
:101820004FEAD13706FB07FC4FEA1C4C0CFB0BF7C9
:10183000D21B03FB0CF761EB07010CFB0EF7B0EBBF
:10184000074072EB17420CFB08F734BFA2EB0742CC
:10185000B2EB074261EB17414FEA0C444FEA9107A4
:1018600006FB07FC4FEA1C4C0CFB0BF7B0EBC74028
:1018700072EB573203FB0CF734BFA2EBC742B2EB5B
:10188000C74261EB57310CFB0EF7B0EBC70072EBB0
:1018900057720CFB08F734BFA2EBC702B2EBC702CA
:1018A00061EB5771039F4FEA816141EA921104EBAA
:1018B000CC044FEAD1374FEA826206FB07FC42EACA
:1018C00090124FEA80604FEA1C4C0CFB0BF7D21BC6
:1018D00003FB0CF761EB07010CFB0EF7B0EB0740C5
:1018E00072EB17420CFB08F734BFA2EB0742B2EBD6
:1018F000074261EB17414FEA8C554FEA910704EB21
:101900009C2406FB07FC4FEA1C4C0CFB0BF7B0EBCE
:10191000C74072EB573203FB0CF734BFA2EBC74250
:10192000B2EBC74261EB57310CFB0EF7B0EBC700CF
:1019300072EB57720CFB08F734BFA2EBC702B2EB95
:10194000C70261EB577115EB4C254FEA816141EA03
:1019500092114FEA82624FEAD13742EA901206FBB7
:1019600007FC44F100044FEA80604FEA1C4C0CFB7A
:101970000BF7D21B03FB0CF761EB07010CFB0EF717
:10198000B0EB074072EB17420CFB08F734BFA2EB39
:101990000742B2EB074261EB174115EB1C154FEA0A
:1019A000813141EA92414FEA823242EA90424FEA63
:1019B00080304FEA0C7644F1000448EA03434EEAD3
:1019C0000B484FF0000EB2EB080C71EB030724BF7D
:1019D000624639464EEB0E0E4FF0000B0018524196
:1019E00049414BEB0B0BB2EB080C71EB03077BF19E
:1019F000000B24BF624639464EEB0E0E4FF0000B33
:101A00000018524149414BEB0B0BB2EB080C71EB48
:101A100003077BF1000B24BF624639464EEB0E0EE6
:101A200051EA020718BF46F0010616EB0E7655F193
:101A3000000254F1000103D5BDE88901BDE800882A
:101A4000BDE88901BDE80048B619524141EB0101EA
:101A5000A3F10103704780807F7E7D7C7B7A79785B
:101A6000777676757473727171706F6E6E6D6C6C63
:101A70006B6A6A6968686766666564646363626105
:101A80006160605F5F5E5E5D5D5C5C5B5B5A5A5986
:101A900059585857575656555555545453535252F2
:101AA0005251515050504F4F4F4E4E4D4D4D4C4C4A
:101AB0004C4B4B4B4A4A4A49494948484847474793
:101AC00047464646454545444444444343434342D0
:101AD000424242414141000046EA0646A3F57053A6
:101AE0004FEA164646EA42564FEAD22242EA4152AD
:101AF00010B54FEAD121A3F1010300F02FF820F037
:101B0000004000F1020C00F0004701EB00501146CC
:101B1000BCF5006F40EA070000D210BDBAF1000F1B
:101B20000AD01CB503B44FF004004FF004014FF08D
:101B300000000FBCBDE810404FF00001BBF1010FE9
:101B4000B9BF04484FF0FF310348002140EA0700C5
:101B500010BD00BFFFFFEF7F0000F07F002B9C4611
:101B600030D477002BD01CB54FEA370703B44FF0C1
:101B700010004FF01001BAF1000F06D0BCF1000FB9
:101B8000DCBF40F0080040F008014FF000000FBC3F
:101B9000BDE810400BF1010BBBF1010F08BF5FEA7C
:101BA000170722BF12F1010211F101014FF00041AC
:101BB00043F1000300F0004043EA00007047F9D30E
:101BC0005708D0E746EA064613F1400F4FEA16469B
:101BD0001FDD13F1200FDFBF16430A46002120331B
:101BE0005B42BED0C3F1200746EA064602FA07F779
:101BF0004FEA164646EA0706C3F1200722FA03F227
:101C000001FA07F721FA03F14FF0000342EA070255
:101C1000A7E746EA020646EA06464FEA164646EABD
:101C20000106BCBF46EA0646360C4FF000034FF0F3
:101C300000024FF0000194E72DE9804C9A4693464C
:101C400070B491E8380007C831EA400C48BF34EA64
:101C5000430C03D5FFF7A3FDFFF780FFF0BCBDE801
:101C6000008C2DE9804C9A46934670B491E8380078
:101C700007C831EA400C48BF34EA430C03D5FFF7EC
:101C80008EFDFFF729FFF0BCBDE8008C2DE9804CEC
:101C90009A46934670B491E8380007C810F0804F18
:101CA00008BF13F0804F03D100F01AF8FFF756FF7A
:101CB000F0BCBDE8008C2DE9804C9A46934670B488
:101CC00091E8380007C810F0804F08BF13F0804F2C
:101CD00003D100F005F8FFF7FFFEF0BCBDE8008C73
:101CE00020F07F4780EA030023F07F4C07EB0C03D2
:101CF000A3F57C5300F00040A3F1FE0392F0000F27
:101D000000F0B38095F0000F00F077802DE90149D5
:101D10004FEA11404FEA144621EA004800FB06FC56
:101D200024EA064708FB06F607FB08F800FB07F75E
:101D300018EB06484CEB164C4FEA124B18EB0748D1
:101D40004FEA15464CEB174022EA0B4E0BFB06FC04
:101D500025EA06470EFB06F607FB0EFE0BFB07F710
:101D60001EEB064E4CEB164C4FF000061EEB074EDA
:101D70004CEB174B18EB0B0840F1000018EB0E0B67
:101D800058EB000840F100008F1A4FF000013CBFF3
:101D9000C943661B14BFB5EB040C00213CBFC9430B
:101DA000F61B4FEA17444EEA8E0E27EA04454FEA27
:101DB0001C4704FB07622CEA074C05FB07F70CFBEA
:101DC00005F604FB0CFC16EB074642EB174216EB3C
:101DD0000C4642EB1C421BEB060658EB020241414B
:101DE00046EA9E0601D5BDE80189B619524141EB8C
:101DF0000101A3F10103BDE801894FEA14454FEA4F
:101E0000114724EA054621EA074C05FB07F406FBC7
:101E100007F70CFB06F105FB0CFC11EB074144EB4B
:101E200017444FEA124711EB0C4144EB1C4422EAE1
:101E3000074C05FB07F206FB07F70CFB06F605FB54
:101E40000CFC16EB074642EB174216EB0C4642EB36
:101E50001C456A1854F1000148BF7047B619524139
:101E600041EB0101A3F10103704795F0000F37D05A
:101E70004FEA11424FEA144721EA024624EA074C8E
:101E800002FB07F106FB07F70CFB06F402FB0CFC58
:101E900014EB074441EB17414FEA154714EB0C4490
:101EA00041EB1C4125EA074C02FB07F506FB07F74F
:101EB0000CFB06F602FB0CFC16EB074645EB174540
:101EC00016EB0C4645EB1C42121951F1000148BFBC
:101ED0007047B619524141EB0101A3F1010370476C
:101EE0004FEA14454FEA114724EA054621EA074C18
:101EF00005FB07F106FB07F70CFB06F24FF00006A7
:101F000005FB0CFC12EB074241EB174112EB0C42B4
:101F100051EB1C4148BF7047921841EB0101A3F1FE
:101F2000010370472DE9F041074688461546042114
:101F3000052000F02DF80021012000F089FB802110
:101F40000A2000F095FE002405E0395D092000F02C
:101F50007FFB601CC4B24445F7DB0321012000F085
:101F600077FBFF2400BF052000F0E6FA0646601E5E
:101F7000C4B21CB106F004000028F4D0222000F006
:101F8000DBFA2870212000F0D7FA6870BDE8F081F4
:101F900070B505460C460026284600F0CDFA0646E8
:101FA00026EA0401284600F053FB70BD10B5024636
:101FB0000B46002107E0505C5C5CA04201D0012090
:101FC00010BD481CC1B20529F5DB0020F8E7000070
:101FD00030B10749096841F48071054A116005E094
:101FE0000349096821F48071014A116070470000BB
:101FF000003C0240014A107070470000003C024063
:10200000F0B50A4600210023002400BF3DE0012571
:1020100005FA01F3156805EA03049C4234D105680A
:102020004F000326BE40B543056015794E00B5400C
:102030000668354305601579012D02D01579022D0A
:1020400016D185684F000326BE40B543856055799B
:102050004E00B540866835438560456801268E4050
:10206000B5434560456896798E40B6B235434560C4
:10207000C5684F000326BE40B543C560D5794E0004
:10208000B540C6683543C560491C1029BFD3F0BDB3
:10209000F0B5002300244D07ED0E02FA05F3CE1033
:1020A00000F1200555F826504E07F70E0F26BE40CA
:1020B000B543CF1000F1200646F82750CE1000F1AE
:1020C000200555F8265045EA0304CE1000F12005FE
:1020D00045F82640F0BD0A0482617047816170476F
:1020E00000B58DB00121084600F05AFB02208DF8A2
:1020F000040000208DF806000520009000208DF8D7
:10210000070003208DF8050069462948FFF778FF8E
:10211000012200212648FFF7BBFF012202212448AB
:10212000FFF7B6FF0121084600F04AFB4FF0804060
:1021300000F0FEFE5320ADF828004FF6FF700B9024
:102140000020ADF830000AA94FF0804001F07EF980
:102150006020ADF814000020ADF820000F2007909B
:102160000120ADF8160005A9800701F063F80020F2
:10217000ADF80800ADF80A000120ADF80C00002011
:10218000ADF80E00ADF8100002A94FF0804001F04C
:10219000F4F85021880601F02EF98021C80501F0DD
:1021A00033F90121880700F0A5FE0DB000BD000045
:1021B0000000024070B52DED048B00204FF08041EF
:1021C00048620121880700F098FE00BF01218807BE
:1021D00000F07FFF0028F9D000214FF0804000F090
:1021E0008CFE0121880700F085FE4FF0804000F052
:1021F0006AFF06464FF0804000F062FF351A28461D
:1022000004F0FCFC41EC190B9FED070B53EC102B79
:1022100004F044FD41EC180B04F0ACFC84B2204601
:10222000BDEC048B70BD0000DFE00B93A982913FF1
:10223000F0B50546059C00201E196E438F1896FBCD
:10224000F7F0984201DA184602E0A04200DD20468D
:10225000F0BD000000B587B00121162000F0A0FA03
:1022600005220A213248FFF713FF052202213148D7
:10227000FFF70EFF052203212E48FFF709FF02207A
:102280008DF8180000208DF81A0001208DF81B0031
:1022900002208DF819004002059005A92448FFF797
:1022A000AFFE0820059005A92248FFF7A9FE0420EB
:1022B000059005A91F48FFF7A3FE4FF44040059085
:1022C00001208DF8180000208DF81A0002208DF8EA
:1022D000190005A91848FFF793FE0121880300F0B3
:1022E0006FFA164800F02CFC0020ADF80000ADF8A5
:1022F0000400ADF80600ADF808004FF40070ADF82A
:102300000A001020ADF80C000020ADF80E000720E8
:10231000ADF810004FF48270ADF80200694607482E
:1023200000F066FC0121054800F0FEFB07B000BD8F
:102330000004024000080240001002400038004043
:1023400010B5142000F0F8F8044604F0030018B9A2
:102350000321142000F08CFC10BDF0B587B00546B9
:10236000002708210846FFF713FE00210D2000F08A
:102370006FF980210E20FFF70BFE93208DF80400EB
:1023800020208DF8050006A801AB022201A90090CB
:102390000C2000F01AF8064686B9002407E001A8D0
:1023A000005D285501A8005D4740601CC4B2042CA4
:1023B000F5DB01A8005DB84200D0022680210E2086
:1023C00000F056FC304607B0F0BD2DE9FE4F064642
:1023D000884691469A46DDF830B0022002900020EF
:1023E000019000900C2E06D00E2E09D112200190E3
:1023F0001020009005E0772001903020009000E050
:1024000000BF00BF019840F08001022000F020F9D9
:1024100080210420FFF7BCFD0021012000F018F905
:1024200080210A2000F024FC002506E018F80510A1
:10243000092000F00DF9681C85B24D45F6DB3146E8
:10244000012000F005F90C2E03D180210D2000F0B1
:102450000FFC4FF4167500BF042000F06DF8044621
:10246000681E85B235B104F0010018B9009820400B
:102470000028F1D080210D20FFF78AFD002D36D0F5
:10248000062000F059F800F01B0070BB00200290FD
:102490000198204000F0010008B1012002900C2EAC
:1024A00025D10A2000F048F804460C2000F044F83A
:1024B00000F007072FB1601E07EBC000ABF800006B
:1024C00002E0E000ABF8000004B90124122C00DDAA
:1024D0001224002506E0092000F02EF80AF8050075
:1024E000681C85B2A542F6DB01E002200290802143
:1024F0000C2000F0BDFB0021012000F0A9F802989B
:10250000BDE8FE8F10B588B050208DF8080000207F
:102510008DF809000DF10A02022102A8FFF702FD61
:1025200007A802AB042202A900900C20FFF74DFF80
:102530000446002008B010BD70B504464FF40041B9
:102540000D48FFF7C8FD052002F0B2FE7E2101EA2A
:10255000440141F0800000F069FB002000F066FBC0
:1025600005464FF400410448FFF7B8FD052002F08E
:102570009FFE284670BD00000010024070B588B074
:1025800005460C46022608210846FFF701FD0721F3
:102590000D2000F05DF80321142000F069FB8DF898
:1025A000085007A802AB012202A900900C20FFF7F7
:1025B0000CFF06464EB9BDF81C00102805D19DF849
:1025C000080020709DF809006070304608B070BDAA
:1025D00010B54FF400411D48FFF780FD4FF4FA504D
:1025E00002F066FE4FF480411848FFF774FD4FF487
:1025F0007A7002F05DFE4FF480411448FFF76EFDE3
:102600004FF47A7002F054FE0F21012000F020F800
:102610004FF47A7002F04CFE2921112000F018F8D6
:1026200000212C2000F014F81E212D2000F010F8BD
:102630008D212A2000F00CF83E212B2000F008F814
:102640004021152000F004F8002010BD00100240C9
:1026500070B504460D464FF400410B48FFF73BFDB3
:10266000052002F025FE7E2101EA440000F0DEFA9A
:10267000284600F0DBFA4FF400410348FFF72EFD37
:10268000052002F015FE70BD0010024010B58AB0A2
:1026900044F29F140121080400F0B2F80121102037
:1026A00000F07EF86020089002208DF824008DF85C
:1026B000250000208DF8260001208DF8270008A9AC
:1026C0003448FFF79DFC032205213248FFF7E0FC68
:1026D000032206212F48FFF7DBFC4FF4F04008905F
:1026E00001208DF8240000208DF8260001208DF8AF
:1026F000270003208DF8250008A92748FFF780FC54
:1027000025481430006840F48040234914310860A3
:102710000846006820F4005008600846006840F44D
:10272000805008600846006820F40060086040F2AD
:10273000E7300690ADF814400020ADF81C00ADF86D
:10274000160005A9154800F081FE6020ADF80000D4
:102750000120ADF8020000200290ADF80C0069469F
:102760000E4800F0BFFC08210C4800F0F9FC694657
:102770000A4800F0FFFC0821084800F0F1FC0121A4
:10278000064800F0ABFB0121044800F0B6FB0AB09C
:1027900010BD000000100240000402400040014053
:1027A00029B1064A12680243044B1A6004E0034A46
:1027B00012688243014B1A607047000030380240B3
:1027C00029B1064A12680243044B1A6004E0034A26
:1027D00012688243014B1A60704700004038024083
:1027E00029B1064A12680243044B1A6004E0034A06
:1027F00012688243014B1A60704700002038024083
:1028000029B1064A12680243044B1A6004E0034AE5
:1028100012688243014B1A6070470000443802403E
:1028200029B1064A12680243044B1A6004E0034AC5
:1028300012688243014B1A6070470000243802403E
:102840001448006840F00100124908600020114956
:10285000083108600F4800680F4908400D490860BA
:102860000E48091D08600E480A49843108600B486B
:102870001038091D08600748006820F480200549C9
:102880000860002003490C31086002498C3108605F
:102890007047000000380240FFFFF6EA10300024C5
:1028A00000300020F0B5002100220024022500267F
:1028B0000223324F3F6807F00C0121B1042905D0F3
:1028C000082937D105E02E4F076036E02D4F07600D
:1028D00033E02A4F3F1F3F68C7F38056274F3F1F03
:1028E0003F6807F03F036EB1264FB7FBF3F7DFF801
:1028F0008CC0ACF1040CDCF800C0CCF3881C07FBE6
:102900000CF40CE01E4FB7FBF3F7DFF870C0ACF12E
:10291000040CDCF800C0CCF3881C07FB0CF4174F48
:102920003F1F3F68C7F301477F1C7D00B4FBF5F7ED
:10293000076002E0124F076000BF00BF0F4F3F6803
:1029400007F0F0010909104F7A5C0768D74047602B
:102950000A4F3F6807F4E051890A0B4F7A5C4768D9
:10296000D7408760054F3F6807F46041490B064F29
:102970007A5C4768D740C760F0BD00000838024065
:102980000024F40000127A000000002010B5014677
:102990000022002300204A11012A02D10A4C236898
:1029A00008E0022A03D1084C7034236802E0064C88
:1029B0007434236801F01F02012494401C400CB1C0
:1029C000012000E0002010BD0038024002480068ED
:1029D00000F00C007047000008380240014600205B
:1029E000034A106820F0F0000843106070470000B0
:1029F000083802400021024A1170114608707047E1
:102A00000238024001460020034A106820F4E050DA
:102A1000084310607047000008380240014600205B
:102A2000034A106820F4604040EAC100106070471B
:102A3000083802400149086670470000000047421C
:102A400070B5049C41EA82150126C6EB530645EA9F
:102A50000645054345EA0465014E356070BD00003A
:102A60000438024001460020034A106820F00300A9
:102A700008431060704700000838024038B5FFF77F
:102A8000DFFE0120FFF7B6FF00F032F8044602E057
:102A900000F02EF80446012CFAD128D10120FFF7CE
:102AA00097FA0520FFF7A6FA0020FFF797FF20030B
:102AB000FFF7B4FF4FF4A050FFF7A4FF0420022358
:102AC000A822014600900005FFF7BAFF0120FFF79A
:102AD000B1FF00BF3920FFF759FF0028FAD00220CC
:102AE000FFF7C0FF00BFFFF771FF0828FBD138BD1B
:102AF00038B5002000900024002500BF3120FFF7EA
:102B000045FF05460098401C00900098B0F5A04F86
:102B100001D0002DF2D03120FFF738FF08B1012499
:102B200000E00024204638BD21B1028842F0400276
:102B3000028004E002884FF6BF731A40028070479B
:102B400010B504462448844208D101218014FFF7BF
:102B500067FE0021A014FFF763FE3CE01F4884429B
:102B600008D101210014FFF73BFE00212014FFF7DC
:102B700037FE30E01A48844208D10121C013FFF724
:102B80002FFE0021E013FFF72BFE24E015488442BE
:102B900008D101214014FFF743FE00216014FFF724
:102BA0003FFE18E01048844209D101210805FFF7D3
:102BB00037FE00214FF48010FFF732FE0BE00B4888
:102BC000844208D101214805FFF72AFE00214FF475
:102BD0000010FFF725FE10BD003001400038004016
:102BE000003C0040003401400050014000540140CE
:102BF00010B50022028802F441520B884C8823430E
:102C00008C882343CC8823430C8923434C8923435A
:102C10008C892343CC8923431A430280838B4FF250
:102C2000FF74234083830B8A038210BD01460F4843
:102C3000018000BF0D48001F008800F0020000283E
:102C4000F8D000BF0948001F008800F001000028EC
:102C5000F8D000BF0548001F008800F08000002861
:102C6000F8D102480088C0B2704700000C3800401C
:102C700070B505460C4600262846FFF75DFC064663
:102C800046EA04012846FFF7E3FC70BD0CB50020BE
:102C9000019000903448006840F480303249086068
:102CA00000BF3148006800F4003000900198401CDB
:102CB0000190009818B90198B0F5A04FF1D12A48B9
:102CC000006800F4003010B10120009001E0002005
:102CD00000900098012846D123484030006840F019
:102CE00080502149403108602048006840F440404D
:102CF0001E4908601C48083000681B4908310860FC
:102D00000846006840F4004008600846006840F447
:102D1000A05008601648091F0860081F006840F0AE
:102D20008070091F086000BF0F48006800F0007045
:102D30000028F9D040F205700E4908600A480830B2
:102D4000006820F003000849083108600846006860
:102D500040F00200086000BF03480830006800F03F
:102D60000C000828F8D10CBD00380240007000406B
:102D700008544007003C024010B51548006840F474
:102D80007000134908601348006840F001001149C1
:102D9000086000200F49083108600E4800680E499D
:102DA00008400C4908600D48091D0860081F0068AC
:102DB00020F48020091F0860002006490C310860BB
:102DC000FFF764FF4FF0006001498039086010BDD3
:102DD00088ED00E000380240FFFFF6FE10300024CE
:102DE0001CB501210846FFF7DBFCF820009000200D
:102DF0008DF804008DF8060001208DF807000220F0
:102E00008DF8050069460248FFF7FAF81CBD00007E
:102E100000000240F0B50C46154600210022068C49
:102E20004FF6FE773E400684018B028C4FF60C76FF
:102E300031407E1C06EA03162E4331434FF6F576E9
:102E4000324044F00106324301830284F0BDF0B504
:102E50000C461546002100220026078C4FF6EF7C19
:102E600007EA0C070784018B028C4FF6FF7707EA0D
:102E7000041640F6FF4739404FF6FF7707EA03375D
:102E800039434FF6FF7707EA052739434FF65F7757
:102E90003A4046F010073A4301830284F0BD000037
:102EA0000EB501218020FFF78BFC0020ADF8080053
:102EB000ADF8020042F20F7001905320ADF800000F
:102EC00000208DF80A006946034800F0BFFA01218E
:102ED000014800F012F80EBD001C004021B102882C
:102EE00042F08002028004E002884FF67F731A40AD
:102EF00002807047CA430282704721B1028842F0C3
:102F00000102028004E002884FF6FE731A4002803C
:102F1000704731B1B0F8442042F40042A0F8442098
:102F200005E0B0F84420C2F30E02A0F84420704738
:102F300010B504465548844208D101210846FFF7E0
:102F40006FFC00210120FFF76BFC9DE0B4F1804F86
:102F500008D101210846FFF743FC00210120FFF7BB
:102F60003FFC91E04A48844208D101210220FFF74A
:102F700037FC00210220FFF733FC85E045488442FE
:102F800008D101210420FFF72BFC00210420FFF7CA
:102F900027FC79E04048844208D101210820FFF74E
:102FA0001FFC00210820FFF71BFC6DE03B4884421A
:102FB00008D101211020FFF713FC00211020FFF79A
:102FC0000FFC61E03648844208D101212020FFF740
:102FD00007FC00212020FFF703FC55E03148844224
:102FE00008D101210220FFF71BFC00210220FFF77E
:102FF00017FC49E02C48844209D101210804FFF75D
:103000000FFC00214FF48030FFF70AFC3CE027481A
:10301000844209D101214804FFF702FC00214FF44A
:103020000030FFF7FDFB2FE02148844209D1012148
:103030008804FFF7F5FB00214FF48020FFF7F0FB39
:1030400022E01C48844208D101214020FFF7C8FB40
:1030500000214020FFF7C4FB16E01748844208D146
:1030600001218020FFF7BCFB00218020FFF7B8FB87
:103070000AE01248844207D101218015FFF7B0FB16
:103080000021A015FFF7ACFB10BD000000000140BF
:103090000004004000080040000C00400010004008
:1030A0000014004000040140004001400044014081
:1030B0000048014000180040001C00400020004073
:1030C0000146486B70470146886B70470146486A65
:1030D000704702460020138A0B400BB1012000E02C
:1030E0000020704770B5002400220023058C4FF6A5
:1030F000FE7635400584028C8388048B4FF68F75ED
:103100002C40B51E2C400D882C43751E2A408D89FD
:103110002A434D882A43104DA84202D00F4DA842A1
:1031200013D14FF6F7752A40CD892A434FF6FB7528
:103130002A408D882A434FF6FF652B404FF6FF55F6
:103140002B400D8A2B434D8A2B43838004838D684B
:103150004563028470BD000000000140000401408E
:103160000A460021018B4FF6F77319401143018382
:103170007047000070B5002400220023058C4FF634
:10318000EF7635400584028C8388048B48F6FF7502
:103190002C404FF6FF452C400D884FF6FF7606EA8F
:1031A00005252C434FF6DF752A408D8906EA051563
:1031B0002A434D8806EA05152A43154DA84202D038
:1031C000144DA8421DD14FF67F752A40CD894FF688
:1031D000FF7606EA05152A434FF6BF752A408D880B
:1031E00006EA05152A434FF6FF352B404FF2FF75CF
:1031F0002B400D8A06EA85052B434D8A06EA850594
:103200002B43838004838D688563028470BD000036
:1032100000000140000401400A460021018B4FF2EA
:10322000FF7319404FF6FF7303EA0223194301832A
:103230007047000070B5002400220023058C4FF673
:10324000FF6635400584028C8388848B4FF68F752A
:103250002C404FF6FC752C400D882C434FF6FF5543
:103260002A408D894FF6FF7606EA05252A434D88C8
:1032700006EA05252A43154DA84202D0144DA8425E
:103280001DD14FF2FF752A40CD894FF6FF7606EA31
:1032900005252A434FF6FF352A408D8806EA052585
:1032A0002A434EF6FF752B404DF6FF752B400D8AD5
:1032B00006EA05152B434D8A06EA05152B43838044
:1032C00084838D68C563028470BD000000000140E6
:1032D000000401400A460021818B4FF6F773194024
:1032E000114381837047000070B500220023002441
:1032F000058C4EF6FF7635400584038C8488828BDE
:1033000048F6FF752A404FF6FF452A400D884FF6D4
:10331000FF7606EA05252A434DF6FF752B408D8979
:1033200006EA05352B434D8806EA05352B430A4D41
:10333000A84202D0094DA84208D14BF6FF752C4097
:103340000D8A4FF6FF7606EA85152C43848082832A
:103350008D680564038470BD0000014000040140D5
:103360000A460021818B4FF2FF7319404FF6FF731D
:1033700003EA02231943818370472DE9F041054692
:103380000C4600260127608808B9022600E00026C6
:10339000A088012801D1022700E001272088A0B9D8
:1033A0002389A28861882846FFF734FDE1882846F2
:1033B00000F035F823893A4631462846FFF747FDA5
:1033C000E188284600F034F813E02389A288618858
:1033D0002846FFF73CFDE188284600F029F82389BC
:1033E0003A4631462846FFF715FDE188284600F0A9
:1033F00016F8BDE8F0810A46002101894FF68F7367
:10340000194011430181704702894FF67F731A40BA
:10341000028102890A430281704741627047028B30
:103420004FF6F3731A400283028B0A4302837047FC
:10343000028B4FF2FF331A400283028B4FF6FF7369
:1034400003EA01231A430283704700000022028826
:10345000184B98420ED0184B98420BD0B0F1804FC9
:1034600008D0164B984205D0154B984202D0154B08
:10347000984204D14FF68F731A404B881A43124B6F
:10348000984207D0114B984204D04FF6FF431A40A0
:103490000B891A4302804B68C3620B880385054B76
:1034A000984202D0044B984201D18B7A03860123C3
:1034B0008382704700000140000401400004004086
:1034C00000080040000C00400010004000140040C4
:1034D00001464FF40030081AC0F38F2070470000F7
:1034E00000B502461046FFF7F3FF012101FA00F094
:1034F0000249096808430149086000BD30380240AC
:103500002DE9F04304460E461546DDE907892046BD
:10351000FFF7DEFFC7B2002243E0012090403040B9
:1035200000B93CE0214830F81700012191400843E0
:103530001E4921F81700E0684FEA420C032101FA06
:103540000CF18843510008FA01F10843E06020685B
:103550004FEA420C032101FA0CF18843510005FAAD
:1035600001F108432060012D01D0022D16D16168C0
:103570000120904080B221EA000003FA02F189B2F2
:1035800008436060A0684FEA420C032101FA0CF185
:103590008843510009FA01F10843A06000BF501CA4
:1035A000C2B2102AB9DBBDE8F08300000C04002091
:1035B0002DE9FC4705460E4617469846DDE90A9A6E
:1035C0000EB9BDE8FC872846FFF78AFF00241AE001
:1035D0000120A040304000B914E0E10805F12000CE
:1035E00050F821006107CA0E0F21914088436107FE
:1035F000C90E0AFA01F10843E20805F1200141F879
:10360000220000BF641C102CE2D33B46022231464C
:103610002846CDE90089FFF773FF00BFD1E700001E
:103620007CB504460D460626F4B915B1012D17D117
:103630000BE00320009000231A464FF480710190A4
:103640000C48FFF7B5FF00260CE003200090002394
:103650001A46402101900848FFF7AAFF002601E022
:10366000062600BF00BF01E0052600BF00BF3046B0
:103670007CBD000000040240001402407CB50446FA
:103680000D460626F4B915B1012D17D10BE0032024
:10369000009000231A464FF4007101900C48FFF788
:1036A00087FF00260CE00320009000231A468021AB
:1036B00001900848FFF77CFF002601E0062600BFC6
:1036C00000BF01E0052600BF00BF30467CBD000002
:1036D00000040240001402407CB505460C46062654
:1036E00015B1012D43D120E014B1012C19D10CE00A
:1036F0000920032100231A46CDE900104FF4804130
:103700001D48FFF755FF00260DE009200321002387
:103710001A46CDE9001040211848FFF749FF00265E
:1037200001E0062600BF00BF23E014B1012C1AD12E
:103730000CE00920032100231A46CDE900104FF4C4
:1037400000410D48FFF734FF00260EE00920032159
:1037500000231A46CDE900104FF400710748FFF727
:1037600027FF002601E0062600BF00BF01E0052676
:1037700000BF00BF30467CBD00040240001C024078
:103780007CB504460D46062604BB15B1012D19D1A2
:103790000BE00920032100231A46CDE90010402147
:1037A0000D48FFF705FF00260EE009200321002346
:1037B0001A46CDE900104FF480710848FFF7F8FE73
:1037C000002601E0062600BF00BF01E0052600BF7D
:1037D00000BF30467CBD00000000024000140240E3
:1037E0007CB504460D46062604BB15B1012D19D142
:1037F0000BE00920032100231A46CDE900108021A7
:103800000D48FFF7D5FE00260EE009200321002316
:103810001A46CDE900104FF400710848FFF7C8FEC2
:10382000002601E0062600BF00BF01E0052600BF1C
:1038300000BF30467CBD0000000002400014024082
:103840007CB505460C46062635B1012D24D0022D47
:1038500042D0032D70D15FE014B1012C18D10BE0E0
:103860000120032100231A46CDE9001001023D4842
:10387000FFF79EFE00260DE00120032100231A46DB
:10388000CDE9001041023848FFF792FE002601E022
:10389000062600BF00BF62E014B1012C18D10BE076
:1038A0000120032100231A46CDE9001041022D48D2
:1038B000FFF77EFE00260DE00120032100231A46BB
:1038C000CDE9001081022848FFF772FE002601E0D2
:1038D000062600BF00BF42E014B1012C18D10BE056
:1038E0000120032100231A46CDE9001081021D4862
:1038F000FFF75EFE00260DE00120032100231A469B
:10390000CDE9001041031848FFF752FE002601E000
:10391000062600BF00BF22E014B1012C19D10CE033
:103920000120032100231A46CDE90010C1020D48F1
:10393000FFF73EFE00260EE00FE0012003210023EA
:103940001A46CDE9001081030748FFF731FE002633
:1039500001E0062600BF00BF01E0052600BF00BF52
:1039600030467CBD00000240001002407CB5054698
:103970000C46062635B1012D32D0022D50D0032D34
:1039800072D16DE024B1012C0ED0022C24D117E0AD
:103990000120032100231A46CDE9001001464348C7
:1039A000FFF706FE002619E00120032100231A4636
:1039B000CDE9001020213D48FFF7FAFD00260DE07B
:1039C0000120032100231A46CDE90010C103374826
:1039D000FFF7EEFD002601E0062600BF00BF62E013
:1039E00014B1012C18D10BE00120032100231A4649
:1039F000CDE9001002212D48FFF7DAFD00260DE089
:103A00000120032100231A46CDE90010082128488F
:103A1000FFF7CEFD002601E0062600BF00BF42E012
:103A200014B1012C18D10BE00120032100231A4608
:103A3000CDE9001004211D48FFF7BAFD00260DE076
:103A40000120032100231A46CDE900108102184805
:103A5000FFF7AEFD002601E0062600BF00BF22E012
:103A60001CB1012C19D10CE01BE001200321002323
:103A70001A46CDE9001008210C48FFF799FD0026F1
:103A80000DE00120032100231A46CDE90010C102F8
:103A90000748FFF78DFD002601E0062600BF00BFA6
:103AA00001E0052600BF00BF30467CBD000002409B
:103AB000000402407CB505460C46062635B1012DB2
:103AC00032D0022D5ED0032D78D17CE024B1012CC0
:103AD0000ED0022C24D117E00220032100231A4625
:103AE000CDE9001040214A48FFF762FD002619E0A9
:103AF0000220032100231A46CDE900101021454879
:103B0000FFF756FD00260DE00220032100231A4690
:103B1000CDE9001041024048FFF74AFD002601E0D0
:103B2000062600BF00BF70E024B1012C0ED0022C8D
:103B300024D117E00220032100231A46CDE900100A
:103B400080213348FFF734FD002619E002200321CD
:103B500000231A46CDE9001020212E48FFF728FD4A
:103B600000260DE00220032100231A46CDE90010B3
:103B700080212948FFF71CFD002601E0062600BF32
:103B800000BF42E014B1012C19D10BE00220032147
:103B900000231A46CDE9001001211E48FFF708FD59
:103BA00000260EE00220032100231A46CDE9001072
:103BB000C1011948FFF7FCFC002602E023E00626BD
:103BC00000BF00BF21E014B1012C18D10BE002208E
:103BD000032100231A46CDE9001001460D48FFF7E6
:103BE000E7FC00260DE00220032100231A46CDE960
:103BF000001001020848FFF7DBFC002601E0062662
:103C000000BF00BF01E0052600BF00BF30467CBDFD
:103C10000000024000040240000802407CB5054656
:103C20000C46062635B1012D24D0022D42D0032D9D
:103C300070D15FE014B1012C18D10BE002200321F8
:103C400000231A46CDE9001040213D48FFF7B0FCA3
:103C500000260DE00220032100231A46CDE90010C2
:103C6000C1023848FFF7A4FC002601E0062600BF89
:103C700000BF62E014B1012C18D10BE00220032137
:103C800000231A46CDE9001080212D48FFF790FC53
:103C900000260DE00220032100231A46CDE9001082
:103CA00001032848FFF784FC002601E0062600BF38
:103CB00000BF42E014B1012C18D10BE00220032117
:103CC00000231A46CDE90010C1011D48FFF770FC22
:103CD00000260DE00220032100231A46CDE9001042
:103CE00041031848FFF764FC002601E0062600BFE8
:103CF00000BF22E014B1012C19D10CE002200321F5
:103D000000231A46CDE9001001020D48FFF750FCD0
:103D100000260EE00FE00220032100231A46CDE921
:103D2000001081030748FFF743FC002601E0062648
:103D300000BF00BF01E0052600BF00BF30467CBDCC
:103D400000040240000C02407CB505460C460626E5
:103D500035B1012D24D0022D42D0032D70D15FE06A
:103D600014B1012C18D10BE00220032100231A46C4
:103D7000CDE9001001213D48FFF71AFC00260DE0B7
:103D80000220032100231A46CDE9001041023848E1
:103D9000FFF70EFC002601E0062600BF00BF62E030
:103DA00014B1012C18D10BE00220032100231A4684
:103DB000CDE9001001462D48FFF7FAFB00260DE083
:103DC0000220032100231A46CDE900108102284871
:103DD000FFF7EEFB002601E0062600BF00BF42E031
:103DE00014B1012C18D10BE00220032100231A4644
:103DF000CDE9001004211D48FFF7DAFB00260DE095
:103E00000220032100231A46CDE90010C102184800
:103E1000FFF7CEFB002601E0062600BF00BF22E030
:103E200014B1012C19D10CE00220032100231A4601
:103E3000CDE9001008210D48FFF7BAFB00260EE07F
:103E40000FE00220032100231A46CDE900100121D2
:103E50000848FFF7ADFB002601E0062600BF00BFC3
:103E600001E0052600BF00BF30467CBD00000240D7
:103E7000001C0240002002407CB505460C46062688
:103E800035B1012D22D0022D3ED0032D7CD15AE038
:103E900014B1012C16D10AE00320009000231A4629
:103EA000402101903B48FFF783FB00260CE00320F4
:103EB000009000231A46202101903748FFF778FB35
:103EC000002601E0062600BF00BF5FE014B1012C10
:103ED00016D10AE00320009000231A4680210190A9
:103EE0002C48FFF765FB00260CE003200090002320
:103EF0001A46402101902848FFF75AFB002601E0AE
:103F0000062600BF00BF41E014B1012C17D10BE021
:103F10000320009000231A464FF4807101901D4841
:103F2000FFF746FB00260CE00320009000231A4612
:103F3000802101901848FFF73BFB002601E0062690
:103F400000BF00BF22E014B1012C19D10BE0032007
:103F5000009000231A464FF4007101900D48FFF7BE
:103F600027FB00260EE00320009000231A464FF4A2
:103F7000807101900848FFF71BFB002602E003E078
:103F8000062600BF00BF01E0052600BF00BF304687
:103F90007CBD000000080240002002407CB50546C0
:103FA0000C46062615B1012D3CD11DE014B1012CA3
:103FB00016D10AE00320009000231A460421019044
:103FC0001B48FFF7F5FA00260CE0032000900023C1
:103FD0001A46202101901748FFF7EAFA002601E06F
:103FE000062600BF00BF1FE014B1012C16D10AE065
:103FF0000320009000231A46082101900C48FFF787
:10400000D7FA00260CE00320009000231A46402136
:1040100001900848FFF7CCFA002601E0062600BF11
:1040200000BF01E0052600BF00BF30467CBD000098
:10403000000002400010024070B504460D461646CE
:1040400036492068884204D131462846FFF7F8FBFC
:1040500070BD2068B0F1804F04D131462846FFF78B
:1040600085FCF5E72E492068884204D13146284670
:10407000FFF720FDECE72B492068884204D1314648
:104080002846FFF7CBFDE3E727492068884204D1A3
:1040900031462846FFF758FEDAE72449206888426F
:1040A00004D131462846FFF7E7FED1E720492068D2
:1040B000884204D131462846FFF770FFC8E71D4902
:1040C0002068884204D131462846FFF7A9FABFE7A5
:1040D00019492068884204D131462846FFF7CEFAB4
:1040E000B6E716492068884204D131462846FFF7D2
:1040F000F3FAADE712492068884204D131462846D8
:10410000FFF73EFBA4E70F492068884204D13146FF
:104110002846FFF765FB9BE7042099E70000014074
:104120000004004000080040000C00400004014072
:104130000040014000440140004801400018004098
:10414000001C00400020004030B52DED048B89B0EC
:1041500004460D46B0EE408AF0EE608A3A4884424A
:1041600002D03A48844204D1042009B0BDEC048B4B
:1041700030BD2C606946204600F07CFA009802F0C1
:104180003DFD41EC190B53EC182B02F04BFD01D215
:104190000120EAE79FED2E0B53EC102B51EC180B8E
:1041A00002F07CFC01D10220DFE7B0EE480AF0EE1D
:1041B000680A684600F0F4F9039808B90120D4E7CA
:1041C00051EC180B02F0D6FCE86053EC182B9FED75
:1041D000220B51EC100B02F009FB41EC190B02F021
:1041E000C9FC2861039868600498A860204600F024
:1041F00027F90498401E80B2ADF818000020ADF8F1
:104200001A000398401E07900020ADF820008DF89A
:10421000220006A92046FFF719F901212046FEF7E2
:104220005DFE0F48844202D00E48844203D1012132
:104230002046FEF76EFE208840F00100208000201E
:1042400085F8240000BF90E70010004000140040F3
:1042500000000000000000000000000080842E41EB
:104260000000014000040140F0B585B004460F464F
:1042700016463D466068B04202D8032005B0F0BD46
:1042800002967020ADF800000120ADF80200022077
:10429000ADF80C0004F1140040F825600120A8409E
:1042A000C5B237B1012F18D0022F2AD0032F50D119
:1042B0003BE094F82400284060B994F82400284397
:1042C00084F8240069462068FEF70CFF0821206866
:1042D000FEF746FF206846633CE094F8240028403F
:1042E00060B994F82400284384F8240069462068C3
:1042F000FEF740FF08212068FEF78EFF20688663E6
:1043000028E094F82400284060B994F82400284359
:1043100084F8240069462068FEF78CFF0821206895
:10432000FEF7D8FF2068C66314E094F82400284004
:1043300060B994F82400284384F824006946206872
:10434000FEF7D2FF08212068FFF70AF8206806640C
:1043500000E000BF00BF002090E72DE9F0410446D7
:104360000E4615462069A84202D20320BDE8F0811E
:104370006068401E68432169B0FBF1F73A46314658
:104380002046FFF771FFF1E72DE9F04104460D46A5
:1043900016461F469FED0C0B21462846FFF7D4FE1C
:1043A00010B10120BDE8F0813A4631462046FFF7C2
:1043B00043FE08B10120F5E7A56284F82C6084F87B
:1043C0002D700020EEE700000000000000004940D2
:1043D00070B52DED028B0446B0EE408AB5EEC08A72
:1043E000F1EE10FA06D39FED130AB4EEC08AF1EE97
:1043F00010FA03DD0120BDEC028B70BD9FED0E0AAB
:1044000028EE000A9FED0B1AC0EE010A9FED0B0A81
:1044100030EE800ABCEEC00A10EE100A85B2A58606
:1044200084ED0C8A94F82C102A462046FFF795FF5D
:104430000020E0E7000034430000FA440000FA43A3
:1044400001464948814205D14848006840F00100D2
:10445000464A1060B1F1804F07D14448001F006800
:1044600040F00100414A121F10604148814207D1CB
:104470003E48001F006840F002003C4A121F1060D6
:104480003C48814207D13948001F006840F00400D1
:10449000364A121F10603848814207D13348001F46
:1044A000006840F00800314A121F10603348814212
:1044B00007D12E48001F006840F010002B4A121F41
:1044C00010602F48814207D12848001F006840F043
:1044D0002000264A121F10602A48814205D1234835
:1044E000006840F00200214A10602748814205D14F
:1044F0001E48006840F480301C4A10602348814206
:1045000005D11A48006840F40030184A106020486D
:10451000814205D11548006840F48020134A10609C
:104520001C48814207D11148001F006840F040003C
:104530000E4A121F10601848814207D10B48001F15
:10454000006840F08000094A121F10601348814241
:1045500007D10648001F006840F48070034A121F0C
:104560001060002070470000000001404438024005
:104570000004004000080040000C00400010004013
:10458000001400400004014000400140004401408C
:104590000048014000180040001C0040002000407E
:1045A00010B52DED068B0446B0EE408AF0EE608A21
:1045B000206802F023FB41EC190B53EC182B02F09E
:1045C00031FB07D200202061E06060610320BDEC78
:1045D000068B10BD9FED250B53EC102B51EC180BE7
:1045E00002F05CFA05D100202061E06060610420E7
:1045F000EDE76068B0F5803F02D26068401C606003
:104600000020206100BF2069401C2168B1FBF0F050
:10461000E060E06802F0F2FA41EC1A0B53EC182B60
:1046200002F0E4F841EC190B02F0A4FAE060206912
:10463000401C20616168E068884204D9A068401C81
:1046400021698142DFD9A068401C2169814205D9D6
:1046500000202061E06060610420B8E751EC180B95
:1046600002F088FA60610020B1E70000000000005D
:10467000000000007FB504460D466846FEF712F9BB
:104680004FF6FF70A860B4F1804F02D01F488442FB
:1046900007D1039828604FF0FF306860002004B015
:1046A00070BD1B4884420BD01A48844208D01A4877
:1046B000844205D01948844202D01948844206D168
:1046C000019828604FF6FF7068600020E7E7154802
:1046D000844211D0144884420ED0144884420BD036
:1046E0001348844208D01348844205D012488442BB
:1046F00002D01248844206D1039828604FF6FF701A
:1047000068600020CBE70220C9E70000000C0040F1
:10471000000001400004014000400140004401400D
:104720000048014000040040000800400010004024
:104730000014004000180040001C00400020004011
:1047400010B540F22551124800F054F8F0B110486D
:1047500000F023F90F49087040F225510C4800F091
:1047600021F80C4800780A280AD00A4801780A483B
:1047700002680068401C084B18600848815405E036
:1047800000200549086001200549087010BD00009F
:10479000004800401B0000201C0000202B020020CD
:1047A0001800002010B50022002340F66A14A14230
:1047B00000D100BF0A1201249440A3B2DC4304805C
:1047C00010BD21B1828942F40052828104E08289C5
:1047D0004DF6FF731A408281704702460020B1F502
:1047E000007F00D100BF13880B400BB1012000E017
:1047F0000020704770B502460024002300250020E9
:1048000040F66A16B14200D100BFC1F3421501F073
:104810001F03012606FA03F3012D02D196893340C6
:1048200006E0022D02D1168A334001E0968A334019
:104830000C12012606FA04F41688344013B10CB1A8
:10484000012000E0002070BDF0B5034600240026E2
:104850000025002040F66A17B94200D100BF184673
:10486000C1F3421401F01F06012707FA06F5012CD7
:1048700001D10C3004E0022C01D1103000E01430E2
:104880001AB107682F43076002E00768AF4307606B
:10489000F0BD00002DE9FF4705460E460024A14665
:1048A00000BFA046B08900B100BF2C8A24F4405458
:1048B000F08804432C82AC8941F20C608443B088B8
:1048C00031890843718908430443AC81AC8A24F4DC
:1048D0004074B0890443AC826846FDF7E3FF20488A
:1048E000854202D01F48854202D1DDF80C9001E0DC
:1048F000DDF80890A88900F4004040B109EBC90038
:1049000000EB091031684900B0FBF1F707E009EB53
:10491000C90000EB091031688900B0FBF1F7642091
:10492000B7FBF0F004012009642101FB1078A8898D
:1049300000F4004040B1322000EBC800B0FBF1F0C1
:1049400000F00700044308E0322000EB0810642167
:10495000B0FBF1F000F00F0004432C81BDE8FF87AD
:10496000001001400014014070B505460C4610E0EF
:1049700000BF80212846FFF730FF0028F9D014F847
:10498000010BA88000BF80212846FFF726FF0028E2
:10499000F9D020780028EBD170BD01468888C0F39B
:1049A0000800704700B587B001218804FDF708FFB3
:1049B00001210420FDF7F4FE02208DF818000020EC
:1049C0008DF81A004FF44060059001208DF81B000F
:1049D00003208DF8190005A91C48FDF711FB0722DB
:1049E0000A211A48FDF754FB07220B211748FDF74F
:1049F0004FFB4FF4E13001900020ADF810000C2087
:104A0000ADF80E000020ADF80C00ADF80A00ADF8CE
:104A1000080001A90E48FFF73DFF01210C48FFF7F0
:104A2000D0FE012240F225510948FFF70DFF272053
:104A300000F01F02012191404209920002F1E022A0
:104A4000C2F8001100BF07B000BD0000000802401E
:104A50000048004010B52DED0C8B82B0D0480069A5
:104A600000F00800CF490870CD48006900F0100040
:104A70004870CB48006900F020008870C848006981
:104A800000F04000C870C648006900F0800008715E
:104A90000846007808280FD10846407810280BD126
:104AA00008468078202807D10846C078402803D1DE
:104AB00008460079802871D0BA48007808280FD1BC
:104AC000B848407860B9B748807848B9B548C078E8
:104AD00030B9B448007918B90020B349086071E0D2
:104AE000B048007860B9AF484078102808D1AD4888
:104AF000807828B9AB48C07810B9AA48007980B14D
:104B0000A848007888B9A748407810280DD1A54852
:104B10008078202809D1A348C07830B9A14800790D
:104B200018B91920A04908604CE09E48007880B967
:104B30009C48407868B99B488078202809D19948DA
:104B4000C07830B99748007918B932209649086082
:104B500038E09448007860B99248407848B9914864
:104B6000807830B98F48C078402802D18D480079CC
:104B700080B18C48007890B98A48407878B98948E3
:104B8000807820280BD18748C078402807D18548F5
:104B9000007920B94B208449086013E0FBE081488C
:104BA000007878B97F48407860B97E48807848B905
:104BB0007C48C07830B97B480079802802D16420D5
:104BC000794908607948006877490968401A784946
:104BD00008600846006877490968401A7649086005
:104BE000084600687549086075480068704909689A
:104BF0000844734908607148006801F0E8FF41EC1F
:104C00001B0B704890ED000B53EC102B51EC1B0B61
:104C100002F044F841EC190B6948006801F0D7FF35
:104C200041EC1D0B684890ED000B53EC102B51EC40
:104C30001D0B02F033F841EC1B0B5D48006801F0DE
:104C4000C6FF41EC1D0B614890ED000B53EC102B9F
:104C500051EC1D0B02F022F841EC1C0B53EC1B2B0A
:104C600001F008FD41EC1A0B53EC192B01F002FD89
:104C700041EC180B01F04EFF554908604C480068A4
:104C80004C4908605248006801F0A1FF41EC190B43
:104C90004648006801F09BFF41EC1B0B4B4890ED30
:104CA000000B53EC102B51EC1B0B01F0F7FF41EC08
:104CB0001A0B53EC192B01F0DDFC41EC180B01F041
:104CC00029FF444908604248006801F080FF41EC38
:104CD000190B3648006801F07AFF41EC1B0B3B488A
:104CE00090ED000B53EC102B51EC1B0B01F0D6FF99
:104CF00041EC1A0B53EC192B02F004F941EC180BA0
:104D000001F008FF344908602848006801F05FFF9F
:104D100041EC190B2D4890ED000B53EC102B51EC8E
:104D2000190B01F0BBFF41EC180B01F0F3FE044638
:104D30002A4800780023224619460090254800683A
:104D4000FDF776FA234908601848006801F03FFF34
:104D500041EC190B1D4890ED000B53EC102B51EC5E
:104D6000190B01F09BFF41EC180B01F0D3FE044638
:104D70001A48007800232246194600901648006819
:104D8000FDF756FA1449086008460068144948635C
:104D900010480068886302B0BDEC0C8B10BD0000A9
:104DA00000000240100000204C00002048000020BD
:104DB0005000002054000020580000205C0000201B
:104DC0006000002030000020380000202800002073
:104DD0004000002064000020680000204400002003
:104DE000004001400000000030B52DED048B81B083
:104DF000B0EE408AF0EE608A6A4651EC180B00F083
:104E00006BFA00989FED329B7E300090002821DCE9
:104E100053EC192B51EC180B01F040FE1AD0002175
:104E200040F608004FF00000044651EC180B01F06A
:104E3000EFFB08EE100A40F6080004EA00014FF00C
:104E40000000B5EEC08AF1EE10FA04BF0220FCF7B4
:104E5000F9F92DE00098FF2830DB002108464FF0DB
:104E6000000000F4400553EC192B51EC180B02F034
:104E700013F88CBF002401240220FCF7E3F99FED16
:104E8000168A4DB1002C0CBF4FF400004FF4800087
:104E9000A84218BF9FED118A042108464FF0000078
:104EA000002C01BFB1EE480A01B0BDEC048B30BD4F
:104EB000B0EE480A01B0BDEC048B30BD51EC180BCC
:104EC00001F0A6FB01B000EE100ABDEC048B30BD72
:104ED00000000000000000000000807FFFFF7F7FD7
:104EE00030B540F2FF742DED048BF0EE608A18EEC1
:104EF000901A85B0B0EE408A9FED2B9B05468DED54
:104F0000008B34EA115147D053EC192B51EC180B9C
:104F100001F0C4FD40D02A4651EC180B02F01BF9F9
:104F200041EC180B18EE900A8DED008B34EA10500E
:104F30001CD053EC192B51EC180B01F0AFFD2BD109
:104F40000220FCF77FF900F057F810EE901A18EEE7
:104F5000900A8DED020B8DED008B61F31E00039026
:104F60009DED020B05B0BDEC048B30BD0220FCF7BB
:104F700069F900F031F810EE901A18EE900A8DEDF4
:104F8000020B8DED008B61F31E0003909DED020B73
:104F900005B0BDEC048B30BD05B0B0EE480AF0EEB4
:104FA000680ABDEC048B30BD00000000000000006A
:104FB00000B583B09FED060B0A4601468DED000B50
:104FC0006846FCF737F89DED000B03B000BD00000C
:104FD00000000000000000009FED050B10B553EC31
:104FE000102B51EC100B01F059FE41EC100B10BDD1
:104FF00000000000000000709FED050B10B553ECA1
:10500000102B51EC100B01F049FE41EC100B10BDC0
:10501000000000000000001010B5044691ED000BE8
:10502000FFF7E2FE84ED000A10BD10B5044690EDD6
:10503000000B0846FFF754FF84ED000B10BD30381D
:105040000A2801D20120704700207047014609B1AB
:10505000086808B90020704719B1D1E901209042D1
:1050600001D30846F7E702E08868401C886041B138
:10507000D1E90120904204D28A680868805C202827
:10508000F2DDD1E90120904202D18868401E88609B
:105090000846E0E770B50446002522E02568A089AF
:1050A00000F4807020B9A06810B1A068FFF7F2FF8B
:1050B000A08900F4807028B9206918B10A4A2069D3
:1050C00051688847A08900F4007028B9206A18B197
:1050D000054A206A51688847034841682046884746
:1050E0002C46002CDAD170BDDC00002070B50446DF
:1050F0000D4600222946204600F036F970BD70B5F5
:1051000004460D4629462046FFF7F0FF08B101206E
:1051100070BD0020FCE770B5044628202168884750
:1051200005461DB128212846FBF776FB284670BDB1
:1051300010B5044600221146204600F06BF810BD61
:105140002DE9F0478AB004460E46154698461C21C4
:1051500003A8FBF761FB002700202C49086048608A
:1051600004B106B932E00394049600200590284A61
:1051700007CA07AB07C32648FFF7CDFF074607B9A5
:1051800024E003A800F02EFF8246FFF75FFF814670
:105190004946384600F014FE00B917E0B8F1000F98
:1051A0000BD003A8FFF752FFDDE90410884203D2B9
:1051B00005990398405C00B108E01DB1059903987A
:1051C0000844286038460AB0BDE8F08717B1384671
:1051D000FFF760FFC4B1019400200290DDE90410E4
:1051E000884202D20598029004E0049810B1049815
:1051F000401E02901DB1DDE901010844286003480A
:10520000DDE9011206C000BF0020DCE7D400002069
:10521000DC0000202DE9F04104460D46164614B985
:105220000020BDE8F0812046FBF74EFA471C3346CC
:105230002A4639462046FFF783FFF2E770B5044659
:105240000D4604B10DB9012070BDAC4201D1002062
:10525000FAE705E0207808B90020F5E7641C6D1C2A
:105260002078FBF7CDF806462878FBF7C9F8864288
:10527000F0D02078FBF7C4F806462878FBF7C0F892
:10528000301AE1E710B504460CE000210748FEF7AC
:10529000C4F800BF0548FDF719FFB0F57A7FF9D3D0
:1052A000601E84B2002CF0D110BD0000001C004034
:1052B00010B504460BE000210648FEF7AEF800BF2B
:1052C0000448FDF703FF0028FAD0601E84B2002CCA
:1052D000F1D110BD001C004010B582B01446CDE9DC
:1052E00000010023009A2360194B21F000409842EE
:1052F0002ADA024328D0B0F5801FA8BF226810DA4E
:105300009FED150B53EC102B9DED000B51EC100B8A
:1053100001F0C4FCCDE900016FF0350221F000403E
:1053200022600F4B6FF31E5103EB2050104420609E
:1053300041F0FF5040F0005001909DED000B00BF88
:1053400002B051EC100B10BD9DED000BF8E7000012
:105350000000F07F0000000000000000000050434B
:1053600002FCFFFF2E2070472DE9F04105460E4656
:105370001746002405B116B90020BDE8F081AC68DD
:105380005FB100E024688CB1206A78B13046216AB0
:10539000FBF76AFA0028F5D108E000E024682CB198
:1053A0003046216AFFF74AFF0028F7D10CB1206A86
:1053B00008B90020E1E72046DFE700001CB5002423
:1053C000FDF75CFB00231A46FA49FB48FEF7DCFFB9
:1053D00000230122F749F8483830FEF7D5FF0023B3
:1053E0000222F449F4487030FEF7CEFF0023032276
:1053F000F049F148A830FEF7C7FF01231A46EF49EC
:10540000ED48E030FEF7C0FFFDF7EAFCFDF748FD90
:1054100001211020FDF7C4F91820009000208DF81C
:1054200004008DF8060001208DF8070003208DF898
:1054300005006946E248FCF7E3FDFCF751FEFCF786
:1054400009FFFDF7C5F8FCF77BFFFFF7ABFAFDF7A7
:105450001DF9DC48006840F48040DA4908600846DD
:10546000006820F4005008600846006840F480504E
:1054700008600846006820F4006008600020D249F7
:10548000486388639FEDD10ACB48FEF7A1FF9FEDEB
:10549000D00AC9483830FEF79BFFB3EE040AC6486D
:1054A0007030FEF795FFB2EE040AC348A830FEF74D
:1054B0008FFFB3EE0E0AC048E030FEF789FF0120EF
:1054C000C4490870C4490870B8E1C448007801288C
:1054D0000FD1C34AC3A1C448FAF7A0FFC24800F0E5
:1054E00035FE002403E00020BD490855641CC82C8B
:1054F000F9D3B848007890B9FCF75CFEBB49088046
:10550000084600881E2807DA0120B34908700020E9
:10551000AD494863886302E00020AF490870AE4897
:1055200000780028D0D1AB4800780028CCD1B04812
:1055300000780028C8D1FFF78DFA00F0DFFCAD49F4
:10554000AD48FCF733FD00287BD1AC48007800283B
:10555000FAD19D494863886314240BE000EE104A99
:10556000B8EE400A94487030FEF732FF1420FFF77F
:1055700089FE641C782CF1D964240AE000EE104AFC
:10558000B8EE400A8C48FEF723FF1420FFF77AFE9E
:10559000641CB42CF2D90A240BE000EE104AB8EED9
:1055A000400A8548A830FEF713FF1420FFF76AFE73
:1055B000641C142CF1D96E240BE000EE104AB8EEF6
:1055C000400A7D483830FEF703FF1420FFF75AFEEB
:1055D000641CA02CF1D91E240BE000EE104AB8EE9A
:1055E000400A7548E030FEF7F3FE1420FFF74AFE4C
:1055F000641C822CF1D94FF4FA70FFF743FEA0240B
:105600000BE000EE104AB8EE400A6B483830FEF767
:10561000DFFE1420FFF736FE641E552CF1D2142451
:105620000BE000EE104AB8EE400A6348A830FEF7DF
:10563000CFFE1420FFF726FE641E0A2CF1D2B424FC
:105640000BE024E000EE104AB8EE400A5A48FEF79C
:10565000BFFE1420FFF716FE641E642CF2D27824DD
:105660000BE000EE104AB8EE400A53487030FEF7E7
:10567000AFFE1420FFF706FE641E142CF1D24FF487
:10568000FA70FFF7FFFD01205C490870CEE05C492D
:105690005948FCF78BFC0028F8D1584800780128BD
:1056A000F4D1002048494863886314240BE000EEDD
:1056B000104AB8EE400A40487030FEF789FE1420C8
:1056C000FFF7E0FD641C782CF1D964240AE000EEB9
:1056D000104AB8EE400A3848FEF77AFE1420FFF769
:1056E000D1FD641E002CF2D10A240BE000EE104A1A
:1056F000B8EE400A3048A830FEF76AFE1420FFF7E3
:10570000C1FD641E002CF1D155240BE000EE104ABF
:10571000B8EE400A28483830FEF75AFE1420FFF74A
:10572000B1FD641CA02CF1D982240BE000EE104ADC
:10573000B8EE400A2048E030FEF74AFE1420FFF79A
:10574000A1FD641E1E2CF1D24FF4FA70FFF79AFDF2
:10575000A0240BE000EE104AB8EE400A164838309C
:10576000FEF736FE1420FFF78DFD641E6E2CF1D27D
:1057700000240BE000EE104AB8EE400A0E48A830B4
:10578000FEF726FE1420FFF77DFD641C0A2CF1D9DC
:1057900000240AE000EE104AB8EE400A0648FEF780
:1057A00017FE1420FFF76EFD641C642CF2D97824D8
:1057B00033E0000000080040F40200200004004034
:1057C0000010024014040240004001400000C842A2
:1057D0000000F042A5000020A400002018000020D6
:1057E0002B0200202573000040010020160000203D
:1057F000A3000020B100002008020020A200002029
:10580000BB00002000EE104AB8EE400A0C48FEF73C
:10581000DFFD1420FFF736FD641E142CF2D24FF486
:10582000FA70FFF72FFD002006490870002403E0FE
:10583000002005490855641C0F2CF9D345E60000EB
:1058400064030020A2000020080200202DE9F0419E
:1058500080460C4600250027E068B0F57A7F02D329
:105860000020BDE8F081E068401CE060A16820688D
:10587000405C5B2800D05FE0A068401CA060204630
:10588000FFF7E4FB4CB1D4E90110884205D2A168CE
:105890002068405C5D2800D13FE01CB1D4E90110D4
:1058A000884203D3A068401EA06045E0A068401E67
:1058B000A06000BF04F11000FFF72DFC064606B9FA
:1058C0003AE015B93546374602E03E607760374624
:1058D000A068401CA0602046FFF7B8FB2146384670
:1058E00000F06EFA00B927E02046FFF7AFFB44B1A5
:1058F000D4E90110884204D2A1682068405C2C28B9
:10590000D8D044B1D4E90110884204D2A1682068FB
:10591000405C5D2800D00FE000BFE068401EE06002
:1059200005B16F602020C8F80C00C8F80850A068C6
:10593000401CA060012094E715B12846FFF7AAFBA0
:1059400000208EE702460023002100BF23E0505CC8
:10595000302806DB505C392803DC505C30380344C7
:1059600015E0505C412806DB505C462803DC505CA7
:10597000373803440BE0505C612806DB505C662836
:1059800003DC505C5738034401E0002070470329D2
:1059900000D21B01491C0429D9D31846F6E70000A0
:1059A000F0B52DED028B91B006460C469FED4B0BEA
:1059B000B0EE408AF0EE608A00201090FFF7D2FC33
:1059C000074600250CB1206820B9002011B0BDECBD
:1059D000028BF0BD00253CE0A16820680844405DD2
:1059E000342820D00ADCA0F12B0009282ED2DFE8D1
:1059F00000F0202D212A2D1617181900382816D04E
:105A000006DC352810D036280FD037281ED10DE0FF
:105A100039280DD045280FD0652817D10BE000BFDD
:105A200000BF00BF00BF00BF00BF00BF00BF00BF7E
:105A300000BF00BF00BF00BFA16820680844405DF0
:105A40000DF8050003E00DF8057000E00AE000BF66
:105A50006D1C3F2D05D224B1A0682844616888429E
:105A6000BAD300BF00200DF8050010A96846FFF763
:105A70009FFAB0EE408AF0EE608A6846109988423C
:105A800001D10020A2E786ED068B9FED160B53ECAB
:105A9000102B51EC180B01F0FFF903D86FF0004008
:105AA000706111E09FED110B53EC102B51EC180BB2
:105AB00001F0B8F803D84FF00040706104E051ECF9
:105AC000180B01F027F870610820F060A0686A46A2
:105AD0001099891A0844A060012077E700000000AF
